{
  "_format": "hh-sol-artifact-1",
  "contractName": "VestingContract",
  "sourceName": "contracts/VestingContract.sol",
  "abi": [
    {
      "inputs": [
        {
          "internalType": "address",
          "name": "_token",
          "type": "address"
        }
      ],
      "stateMutability": "nonpayable",
      "type": "constructor"
    },
    {
      "anonymous": false,
      "inputs": [
        {
          "indexed": true,
          "internalType": "address",
          "name": "previousOwner",
          "type": "address"
        },
        {
          "indexed": true,
          "internalType": "address",
          "name": "newOwner",
          "type": "address"
        }
      ],
      "name": "OwnershipTransferred",
      "type": "event"
    },
    {
      "inputs": [],
      "name": "initialSupply",
      "outputs": [
        {
          "internalType": "uint256",
          "name": "",
          "type": "uint256"
        }
      ],
      "stateMutability": "view",
      "type": "function"
    },
    {
      "inputs": [],
      "name": "lockTokens",
      "outputs": [],
      "stateMutability": "nonpayable",
      "type": "function"
    },
    {
      "inputs": [],
      "name": "marketingTokensReleased",
      "outputs": [
        {
          "internalType": "bool",
          "name": "",
          "type": "bool"
        }
      ],
      "stateMutability": "view",
      "type": "function"
    },
    {
      "inputs": [],
      "name": "owner",
      "outputs": [
        {
          "internalType": "address",
          "name": "",
          "type": "address"
        }
      ],
      "stateMutability": "view",
      "type": "function"
    },
    {
      "inputs": [],
      "name": "releaseMarketingTokens",
      "outputs": [],
      "stateMutability": "nonpayable",
      "type": "function"
    },
    {
      "inputs": [],
      "name": "releaseRemainingTokens",
      "outputs": [],
      "stateMutability": "nonpayable",
      "type": "function"
    },
    {
      "inputs": [],
      "name": "releaseSaleTokens",
      "outputs": [],
      "stateMutability": "nonpayable",
      "type": "function"
    },
    {
      "inputs": [],
      "name": "remainingTokensReleased",
      "outputs": [
        {
          "internalType": "bool",
          "name": "",
          "type": "bool"
        }
      ],
      "stateMutability": "view",
      "type": "function"
    },
    {
      "inputs": [],
      "name": "renounceOwnership",
      "outputs": [],
      "stateMutability": "nonpayable",
      "type": "function"
    },
    {
      "inputs": [],
      "name": "saleTokensReleased",
      "outputs": [
        {
          "internalType": "bool",
          "name": "",
          "type": "bool"
        }
      ],
      "stateMutability": "view",
      "type": "function"
    },
    {
      "inputs": [],
      "name": "token",
      "outputs": [
        {
          "internalType": "contract IERC20",
          "name": "",
          "type": "address"
        }
      ],
      "stateMutability": "view",
      "type": "function"
    },
    {
      "inputs": [],
      "name": "tokenLocked",
      "outputs": [
        {
          "internalType": "bool",
          "name": "",
          "type": "bool"
        }
      ],
      "stateMutability": "view",
      "type": "function"
    },
    {
      "inputs": [],
      "name": "tokenPublicsale",
      "outputs": [
        {
          "internalType": "uint256",
          "name": "",
          "type": "uint256"
        }
      ],
      "stateMutability": "view",
      "type": "function"
    },
    {
      "inputs": [],
      "name": "tokensLocked",
      "outputs": [
        {
          "internalType": "uint256",
          "name": "",
          "type": "uint256"
        }
      ],
      "stateMutability": "view",
      "type": "function"
    },
    {
      "inputs": [],
      "name": "totalTokensLocked",
      "outputs": [
        {
          "internalType": "uint256",
          "name": "",
          "type": "uint256"
        }
      ],
      "stateMutability": "view",
      "type": "function"
    },
    {
      "inputs": [],
      "name": "totalTokensMarketing",
      "outputs": [
        {
          "internalType": "uint256",
          "name": "",
          "type": "uint256"
        }
      ],
      "stateMutability": "view",
      "type": "function"
    },
    {
      "inputs": [
        {
          "internalType": "address",
          "name": "newOwner",
          "type": "address"
        }
      ],
      "name": "transferOwnership",
      "outputs": [],
      "stateMutability": "nonpayable",
      "type": "function"
    },
    {
      "inputs": [
        {
          "internalType": "address",
          "name": "newOwner",
          "type": "address"
        }
      ],
      "name": "transferVestingContractOwnership",
      "outputs": [],
      "stateMutability": "nonpayable",
      "type": "function"
    },
    {
      "inputs": [],
      "name": "unlockTime",
      "outputs": [
        {
          "internalType": "uint256",
          "name": "",
          "type": "uint256"
        }
      ],
      "stateMutability": "view",
      "type": "function"
    },
    {
      "inputs": [],
      "name": "unlockTokens",
      "outputs": [],
      "stateMutability": "nonpayable",
      "type": "function"
    }
  ],
  "bytecode": "0x608060405260006004556000600555600060065560006007556000600860006101000a81548160ff0219169083151502179055506000600860016101000a81548160ff0219169083151502179055506000600860026101000a81548160ff0219169083151502179055506000600860036101000a81548160ff0219169083151502179055503480156200009157600080fd5b5060405162001b2d38038062001b2d8339818101604052810190620000b791906200038e565b620000d7620000cb6200025860201b60201c565b6200026060201b60201c565b80600160006101000a81548173ffffffffffffffffffffffffffffffffffffffff021916908373ffffffffffffffffffffffffffffffffffffffff1602179055506368dc1aa0600281905550600160009054906101000a900473ffffffffffffffffffffffffffffffffffffffff1673ffffffffffffffffffffffffffffffffffffffff166318160ddd6040518163ffffffff1660e01b8152600401602060405180830381865afa15801562000191573d6000803e3d6000fd5b505050506040513d601f19601f82011682018060405250810190620001b79190620003fb565b6003819055506064600f600354620001d091906200045c565b620001dc9190620004d6565b60068190555060646019600354620001f591906200045c565b620002019190620004d6565b600581905550606460286003546200021a91906200045c565b620002269190620004d6565b600481905550606460146003546200023f91906200045c565b6200024b9190620004d6565b600781905550506200050e565b600033905090565b60008060009054906101000a900473ffffffffffffffffffffffffffffffffffffffff169050816000806101000a81548173ffffffffffffffffffffffffffffffffffffffff021916908373ffffffffffffffffffffffffffffffffffffffff1602179055508173ffffffffffffffffffffffffffffffffffffffff168173ffffffffffffffffffffffffffffffffffffffff167f8be0079c531659141344cd1fd0a4f28419497f9722a3daafe3b4186f6b6457e060405160405180910390a35050565b600080fd5b600073ffffffffffffffffffffffffffffffffffffffff82169050919050565b6000620003568262000329565b9050919050565b620003688162000349565b81146200037457600080fd5b50565b60008151905062000388816200035d565b92915050565b600060208284031215620003a757620003a662000324565b5b6000620003b78482850162000377565b91505092915050565b6000819050919050565b620003d581620003c0565b8114620003e157600080fd5b50565b600081519050620003f581620003ca565b92915050565b60006020828403121562000414576200041362000324565b5b60006200042484828501620003e4565b91505092915050565b7f4e487b7100000000000000000000000000000000000000000000000000000000600052601160045260246000fd5b60006200046982620003c0565b91506200047683620003c0565b92508282026200048681620003c0565b91508282048414831517620004a0576200049f6200042d565b5b5092915050565b7f4e487b7100000000000000000000000000000000000000000000000000000000600052601260045260246000fd5b6000620004e382620003c0565b9150620004f083620003c0565b925082620005035762000502620004a7565b5b828204905092915050565b61160f806200051e6000396000f3fe608060405234801561001057600080fd5b506004361061012c5760003560e01c80638da5cb5b116100ad578063dc31adee11610071578063dc31adee146102a1578063dc5bf961146102ab578063f2fde38b146102c9578063f968f493146102e5578063fc0c546a146102ef5761012c565b80638da5cb5b1461021f57806391decc761461023d578063a1feba4214610247578063a99bd4ed14610265578063cba6c7d6146102835761012c565b80636a630559116100f45780636a6305591461019f578063715018a6146101bd57806377d764a2146101c757806378f2898f146101e5578063883748b3146102015761012c565b80630a56293d146101315780631dfc88741461013b578063251c1aa314610159578063378dc3dc146101775780633d3f9acf14610195575b600080fd5b61013961030d565b005b6101436104a3565b6040516101509190610d91565b60405180910390f35b6101616104b6565b60405161016e9190610dc5565b60405180910390f35b61017f6104bc565b60405161018c9190610dc5565b60405180910390f35b61019d6104c2565b005b6101a76105fc565b6040516101b49190610d91565b60405180910390f35b6101c561060f565b005b6101cf610623565b6040516101dc9190610d91565b60405180910390f35b6101ff60048036038101906101fa9190610e43565b610636565b005b61020961064a565b6040516102169190610d91565b60405180910390f35b61022761065d565b6040516102349190610e7f565b60405180910390f35b610245610686565b005b61024f610873565b60405161025c9190610dc5565b60405180910390f35b61026d610879565b60405161027a9190610dc5565b60405180910390f35b61028b61087f565b6040516102989190610dc5565b60405180910390f35b6102a9610885565b005b6102b36109d6565b6040516102c09190610dc5565b60405180910390f35b6102e360048036038101906102de9190610e43565b6109dc565b005b6102ed610a5f565b005b6102f7610c06565b6040516103049190610ef9565b60405180910390f35b610315610c2c565b600860009054906101000a900460ff1615610365576040517f08c379a000000000000000000000000000000000000000000000000000000000815260040161035c90610f71565b60405180910390fd5b6000606460146003546103789190610fc0565b6103829190611031565b9050600081116103c7576040517f08c379a00000000000000000000000000000000000000000000000000000000081526004016103be906110ae565b60405180910390fd5b600160009054906101000a900473ffffffffffffffffffffffffffffffffffffffff1673ffffffffffffffffffffffffffffffffffffffff166323b872dd739c14a88219f2e95eee274bab3743102d0337e8e530846040518463ffffffff1660e01b815260040161043a939291906110ce565b6020604051808303816000875af1158015610459573d6000803e3d6000fd5b505050506040513d601f19601f8201168201806040525081019061047d9190611131565b50806007819055506001600860006101000a81548160ff02191690831515021790555050565b600860039054906101000a900460ff1681565b60025481565b60035481565b6104ca610c2c565b600860019054906101000a900460ff161561051a576040517f08c379a0000000000000000000000000000000000000000000000000000000008152600401610511906111d0565b60405180910390fd5b60006004549050600160009054906101000a900473ffffffffffffffffffffffffffffffffffffffff1673ffffffffffffffffffffffffffffffffffffffff1663a9059cbb739c14a88219f2e95eee274bab3743102d0337e8e5836040518363ffffffff1660e01b81526004016105929291906111f0565b6020604051808303816000875af11580156105b1573d6000803e3d6000fd5b505050506040513d601f19601f820116820180604052508101906105d59190611131565b5060006004819055506001600860016101000a81548160ff02191690831515021790555050565b600860009054906101000a900460ff1681565b610617610c2c565b6106216000610caa565b565b600860019054906101000a900460ff1681565b61063e610c2c565b610647816109dc565b50565b600860029054906101000a900460ff1681565b60008060009054906101000a900473ffffffffffffffffffffffffffffffffffffffff16905090565b61068e610c2c565b600860039054906101000a900460ff16156106de576040517f08c379a00000000000000000000000000000000000000000000000000000000081526004016106d59061128b565b60405180910390fd5b6365920080421015610725576040517f08c379a000000000000000000000000000000000000000000000000000000000815260040161071c9061131d565b60405180910390fd5b6000606460196003546107389190610fc0565b6107429190611031565b905060008111610787576040517f08c379a000000000000000000000000000000000000000000000000000000000815260040161077e90611389565b60405180910390fd5b600160009054906101000a900473ffffffffffffffffffffffffffffffffffffffff1673ffffffffffffffffffffffffffffffffffffffff1663a9059cbb739c14a88219f2e95eee274bab3743102d0337e8e5836040518363ffffffff1660e01b81526004016107f89291906111f0565b6020604051808303816000875af1158015610817573d6000803e3d6000fd5b505050506040513d601f19601f8201168201806040525081019061083b9190611131565b50806005600082825461084e91906113a9565b925050819055506001600860036101000a81548160ff02191690831515021790555050565b60075481565b60045481565b60065481565b61088d610c2c565b600860029054906101000a900460ff16156108dd576040517f08c379a00000000000000000000000000000000000000000000000000000000081526004016108d49061144f565b60405180910390fd5b60006064600f6003546108f09190610fc0565b6108fa9190611031565b9050600160009054906101000a900473ffffffffffffffffffffffffffffffffffffffff1673ffffffffffffffffffffffffffffffffffffffff1663a9059cbb739c14a88219f2e95eee274bab3743102d0337e8e5836040518363ffffffff1660e01b815260040161096d9291906111f0565b6020604051808303816000875af115801561098c573d6000803e3d6000fd5b505050506040513d601f19601f820116820180604052508101906109b09190611131565b50806006819055506001600860026101000a81548160ff02191690831515021790555050565b60055481565b6109e4610c2c565b600073ffffffffffffffffffffffffffffffffffffffff168173ffffffffffffffffffffffffffffffffffffffff1603610a53576040517f08c379a0000000000000000000000000000000000000000000000000000000008152600401610a4a906114e1565b60405180910390fd5b610a5c81610caa565b50565b610a67610c2c565b600860039054906101000a900460ff1615610ab7576040517f08c379a0000000000000000000000000000000000000000000000000000000008152600401610aae9061128b565b60405180910390fd5b6000600754905060008111610b01576040517f08c379a0000000000000000000000000000000000000000000000000000000008152600401610af89061154d565b60405180910390fd5b600254421015610b46576040517f08c379a0000000000000000000000000000000000000000000000000000000008152600401610b3d9061131d565b60405180910390fd5b600160009054906101000a900473ffffffffffffffffffffffffffffffffffffffff1673ffffffffffffffffffffffffffffffffffffffff1663a9059cbb739c14a88219f2e95eee274bab3743102d0337e8e5836040518363ffffffff1660e01b8152600401610bb79291906111f0565b6020604051808303816000875af1158015610bd6573d6000803e3d6000fd5b505050506040513d601f19601f82011682018060405250810190610bfa9190611131565b50600060078190555050565b600160009054906101000a900473ffffffffffffffffffffffffffffffffffffffff1681565b610c34610d6e565b73ffffffffffffffffffffffffffffffffffffffff16610c5261065d565b73ffffffffffffffffffffffffffffffffffffffff1614610ca8576040517f08c379a0000000000000000000000000000000000000000000000000000000008152600401610c9f906115b9565b60405180910390fd5b565b60008060009054906101000a900473ffffffffffffffffffffffffffffffffffffffff169050816000806101000a81548173ffffffffffffffffffffffffffffffffffffffff021916908373ffffffffffffffffffffffffffffffffffffffff1602179055508173ffffffffffffffffffffffffffffffffffffffff168173ffffffffffffffffffffffffffffffffffffffff167f8be0079c531659141344cd1fd0a4f28419497f9722a3daafe3b4186f6b6457e060405160405180910390a35050565b600033905090565b60008115159050919050565b610d8b81610d76565b82525050565b6000602082019050610da66000830184610d82565b92915050565b6000819050919050565b610dbf81610dac565b82525050565b6000602082019050610dda6000830184610db6565b92915050565b600080fd5b600073ffffffffffffffffffffffffffffffffffffffff82169050919050565b6000610e1082610de5565b9050919050565b610e2081610e05565b8114610e2b57600080fd5b50565b600081359050610e3d81610e17565b92915050565b600060208284031215610e5957610e58610de0565b5b6000610e6784828501610e2e565b91505092915050565b610e7981610e05565b82525050565b6000602082019050610e946000830184610e70565b92915050565b6000819050919050565b6000610ebf610eba610eb584610de5565b610e9a565b610de5565b9050919050565b6000610ed182610ea4565b9050919050565b6000610ee382610ec6565b9050919050565b610ef381610ed8565b82525050565b6000602082019050610f0e6000830184610eea565b92915050565b600082825260208201905092915050565b7f546f6b656e73206861766520616c7265616479206265656e206c6f636b656400600082015250565b6000610f5b601f83610f14565b9150610f6682610f25565b602082019050919050565b60006020820190508181036000830152610f8a81610f4e565b9050919050565b7f4e487b7100000000000000000000000000000000000000000000000000000000600052601160045260246000fd5b6000610fcb82610dac565b9150610fd683610dac565b9250828202610fe481610dac565b91508282048414831517610ffb57610ffa610f91565b5b5092915050565b7f4e487b7100000000000000000000000000000000000000000000000000000000600052601260045260246000fd5b600061103c82610dac565b915061104783610dac565b92508261105757611056611002565b5b828204905092915050565b7f4e6f20746f6b656e73206c65667420746f206c6f636b00000000000000000000600082015250565b6000611098601683610f14565b91506110a382611062565b602082019050919050565b600060208201905081810360008301526110c78161108b565b9050919050565b60006060820190506110e36000830186610e70565b6110f06020830185610e70565b6110fd6040830184610db6565b949350505050565b61110e81610d76565b811461111957600080fd5b50565b60008151905061112b81611105565b92915050565b60006020828403121561114757611146610de0565b5b60006111558482850161111c565b91505092915050565b7f53616c6520746f6b656e73206861766520616c7265616479206265656e20726560008201527f6c65617365640000000000000000000000000000000000000000000000000000602082015250565b60006111ba602683610f14565b91506111c58261115e565b604082019050919050565b600060208201905081810360008301526111e9816111ad565b9050919050565b60006040820190506112056000830185610e70565b6112126020830184610db6565b9392505050565b7f52656d61696e696e6720746f6b656e73206861766520616c726561647920626560008201527f656e2072656c6561736564000000000000000000000000000000000000000000602082015250565b6000611275602b83610f14565b915061128082611219565b604082019050919050565b600060208201905081810360008301526112a481611268565b9050919050565b7f546f6b656e7320617265206c6f636b656420756e74696c2074686520756e6c6f60008201527f636b2074696d6500000000000000000000000000000000000000000000000000602082015250565b6000611307602783610f14565b9150611312826112ab565b604082019050919050565b60006020820190508181036000830152611336816112fa565b9050919050565b7f4e6f20746f6b656e7320746f2072656c65617365000000000000000000000000600082015250565b6000611373601483610f14565b915061137e8261133d565b602082019050919050565b600060208201905081810360008301526113a281611366565b9050919050565b60006113b482610dac565b91506113bf83610dac565b92508282039050818111156113d7576113d6610f91565b5b92915050565b7f4d61726b6574696e6720746f6b656e73206861766520616c726561647920626560008201527f656e2072656c6561736564000000000000000000000000000000000000000000602082015250565b6000611439602b83610f14565b9150611444826113dd565b604082019050919050565b600060208201905081810360008301526114688161142c565b9050919050565b7f4f776e61626c653a206e6577206f776e657220697320746865207a65726f206160008201527f6464726573730000000000000000000000000000000000000000000000000000602082015250565b60006114cb602683610f14565b91506114d68261146f565b604082019050919050565b600060208201905081810360008301526114fa816114be565b9050919050565b7f4e6f20746f6b656e7320746f20756e6c6f636b00000000000000000000000000600082015250565b6000611537601383610f14565b915061154282611501565b602082019050919050565b600060208201905081810360008301526115668161152a565b9050919050565b7f4f776e61626c653a2063616c6c6572206973206e6f7420746865206f776e6572600082015250565b60006115a3602083610f14565b91506115ae8261156d565b602082019050919050565b600060208201905081810360008301526115d281611596565b905091905056fea264697066735822122096dab86838340fe6f1487c0a0ba04e4971a6390c97caf240dac3b340532c54c264736f6c63430008180033",
  "linkReferences": {},
  "deployedLinkReferences": {}
}